###############################################################################
#
# IAR ELF Linker V8.30.1.114/W32 for ARM                  03/Mar/2020  06:48:59
# Copyright 2007-2018 IAR Systems AB.
#
#    Output file  =  
#        c:\Users\test\Documents\stm32\L031\RTC+uartBU\RTC+uart\rtc\EWARM\rtc\Exe\rtc.out
#    Map file     =  
#        c:\Users\test\Documents\stm32\L031\RTC+uartBU\RTC+uart\rtc\EWARM\rtc\List\rtc.map
#    Command line =  
#        -f C:\Users\test\AppData\Local\Temp\EW8500.tmp
#        (c:\Users\test\Documents\stm32\L031\RTC+uartBU\RTC+uart\rtc\EWARM\rtc\Obj\main.o
#        c:\Users\test\Documents\stm32\L031\RTC+uartBU\RTC+uart\rtc\EWARM\rtc\Obj\startup_stm32l031xx.o
#        c:\Users\test\Documents\stm32\L031\RTC+uartBU\RTC+uart\rtc\EWARM\rtc\Obj\stm32l0xx_hal.o
#        c:\Users\test\Documents\stm32\L031\RTC+uartBU\RTC+uart\rtc\EWARM\rtc\Obj\stm32l0xx_hal_cortex.o
#        c:\Users\test\Documents\stm32\L031\RTC+uartBU\RTC+uart\rtc\EWARM\rtc\Obj\stm32l0xx_hal_dma.o
#        c:\Users\test\Documents\stm32\L031\RTC+uartBU\RTC+uart\rtc\EWARM\rtc\Obj\stm32l0xx_hal_flash.o
#        c:\Users\test\Documents\stm32\L031\RTC+uartBU\RTC+uart\rtc\EWARM\rtc\Obj\stm32l0xx_hal_flash_ex.o
#        c:\Users\test\Documents\stm32\L031\RTC+uartBU\RTC+uart\rtc\EWARM\rtc\Obj\stm32l0xx_hal_flash_ramfunc.o
#        c:\Users\test\Documents\stm32\L031\RTC+uartBU\RTC+uart\rtc\EWARM\rtc\Obj\stm32l0xx_hal_gpio.o
#        c:\Users\test\Documents\stm32\L031\RTC+uartBU\RTC+uart\rtc\EWARM\rtc\Obj\stm32l0xx_hal_i2c.o
#        c:\Users\test\Documents\stm32\L031\RTC+uartBU\RTC+uart\rtc\EWARM\rtc\Obj\stm32l0xx_hal_i2c_ex.o
#        c:\Users\test\Documents\stm32\L031\RTC+uartBU\RTC+uart\rtc\EWARM\rtc\Obj\stm32l0xx_hal_msp.o
#        c:\Users\test\Documents\stm32\L031\RTC+uartBU\RTC+uart\rtc\EWARM\rtc\Obj\stm32l0xx_hal_pwr.o
#        c:\Users\test\Documents\stm32\L031\RTC+uartBU\RTC+uart\rtc\EWARM\rtc\Obj\stm32l0xx_hal_pwr_ex.o
#        c:\Users\test\Documents\stm32\L031\RTC+uartBU\RTC+uart\rtc\EWARM\rtc\Obj\stm32l0xx_hal_rcc.o
#        c:\Users\test\Documents\stm32\L031\RTC+uartBU\RTC+uart\rtc\EWARM\rtc\Obj\stm32l0xx_hal_rcc_ex.o
#        c:\Users\test\Documents\stm32\L031\RTC+uartBU\RTC+uart\rtc\EWARM\rtc\Obj\stm32l0xx_hal_rtc.o
#        c:\Users\test\Documents\stm32\L031\RTC+uartBU\RTC+uart\rtc\EWARM\rtc\Obj\stm32l0xx_hal_rtc_ex.o
#        c:\Users\test\Documents\stm32\L031\RTC+uartBU\RTC+uart\rtc\EWARM\rtc\Obj\stm32l0xx_hal_tim.o
#        c:\Users\test\Documents\stm32\L031\RTC+uartBU\RTC+uart\rtc\EWARM\rtc\Obj\stm32l0xx_hal_tim_ex.o
#        c:\Users\test\Documents\stm32\L031\RTC+uartBU\RTC+uart\rtc\EWARM\rtc\Obj\stm32l0xx_hal_uart.o
#        c:\Users\test\Documents\stm32\L031\RTC+uartBU\RTC+uart\rtc\EWARM\rtc\Obj\stm32l0xx_hal_uart_ex.o
#        c:\Users\test\Documents\stm32\L031\RTC+uartBU\RTC+uart\rtc\EWARM\rtc\Obj\stm32l0xx_it.o
#        c:\Users\test\Documents\stm32\L031\RTC+uartBU\RTC+uart\rtc\EWARM\rtc\Obj\system_stm32l0xx.o
#        --redirect _Printf=_PrintfFull --redirect _Scanf=_ScanfFull
#        --no_out_extension -o
#        c:\Users\test\Documents\stm32\L031\RTC+uartBU\RTC+uart\rtc\EWARM\rtc\Exe\rtc.out
#        --map
#        c:\Users\test\Documents\stm32\L031\RTC+uartBU\RTC+uart\rtc\EWARM\rtc\List\rtc.map
#        --config
#        c:\Users\test\Documents\stm32\L031\RTC+uartBU\RTC+uart\rtc\EWARM/stm32l031xx_flash.icf
#        --semihosting --entry __iar_program_start --vfe --text_out locale)
#
###############################################################################

*******************************************************************************
*** RUNTIME MODEL ATTRIBUTES
***

CppFlavor       = *
__SystemLibrary = DLib
__dlib_version  = 6


*******************************************************************************
*** HEAP SELECTION
***

The basic heap was selected because no calls to memory allocation
functions were found in the application outside of system library
functions, and there are calls to deallocation functions in the
application.


*******************************************************************************
*** PLACEMENT SUMMARY
***

"A0":  place at 0x800'0000 { ro section .intvec };
"P1":  place in [from 0x800'0000 to 0x800'7fff] { ro };
define block CSTACK with size = 1K, alignment = 8 { };
define block HEAP with size = 512, alignment = 8 { };
"P2":  place in [from 0x2000'0000 to 0x2000'1fff] {
          rw, block CSTACK, block HEAP };
initialize by copy { rw };

  Section            Kind         Address    Size  Object
  -------            ----         -------    ----  ------
"A0":                                        0xc0
  .intvec            ro code   0x800'0000    0xc0  startup_stm32l031xx.o [1]
                             - 0x800'00c0    0xc0

"P1":                                      0x3d81
  .text              ro code   0x800'00c0  0x1006  xprintffull.o [2]
  .text              ro code   0x800'10c6    0x7e  lz77_init_single.o [4]
  .text              ro code   0x800'1144    0x8c  xlocale_c.o [2]
  .text              ro code   0x800'11d0    0x16  strchr.o [4]
  .text              ro code   0x800'11e6     0x2  startup_stm32l031xx.o [1]
  .text              ro code   0x800'11e8    0x48  xfail_s.o [2]
  .text              ro code   0x800'1230    0x10  strlen.o [4]
  .text              ro code   0x800'1240    0x18  memchr.o [4]
  .text              ro code   0x800'1258     0xa  xmbcurmax.o [2]
  .text              ro code   0x800'1262     0x2  startup_stm32l031xx.o [1]
  .text              ro code   0x800'1264    0x5c  ABImemcpy.o [4]
  .text              ro code   0x800'12c0    0x6a  I64DivMod.o [4]
  .text              ro code   0x800'132a   0x184  DblMul.o [3]
  .text              ro code   0x800'14ae    0x32  DblCmpLe.o [3]
  .text              ro code   0x800'14e0    0x32  DblCmpGe.o [3]
  .text              ro code   0x800'1512     0x2  startup_stm32l031xx.o [1]
  .text              ro code   0x800'1514    0x52  DblToI32.o [3]
  .text              ro code   0x800'1566     0x2  startup_stm32l031xx.o [1]
  .text              ro code   0x800'1568    0x34  IxxToDbl.o [3]
  .text              ro code   0x800'159c   0x1a8  DblAddSub.o [3]
  .text              ro code   0x800'1744    0xe0  I32DivModFast.o [4]
  .text              ro code   0x800'1824    0xc2  DblDiv.o [3]
  .text              ro code   0x800'18e6     0x2  startup_stm32l031xx.o [1]
  .text              ro code   0x800'18e8    0x36  I32DivMod.o [4]
  .text              ro code   0x800'191e     0xa  abort.o [2]
  .text              ro code   0x800'1928     0x2  I64DivZer.o [4]
  .text              ro code   0x800'192a     0x2  startup_stm32l031xx.o [1]
  .text              ro code   0x800'192c     0x2  IntDivZer.o [4]
  .text              ro code   0x800'192e     0x2  startup_stm32l031xx.o [1]
  .text              ro code   0x800'1930    0x14  exit.o [5]
  .text              ro code   0x800'1944   0x928  stm32l0xx_hal_uart.o [1]
  .text              ro code   0x800'226c   0x114  stm32l0xx_hal_msp.o [1]
  .text              ro code   0x800'2380     0xc  stm32l0xx_hal.o [1]
  .text              ro code   0x800'238c    0x4e  stm32l0xx_hal_dma.o [1]
  .text              ro code   0x800'23da     0x2  startup_stm32l031xx.o [1]
  .text              ro code   0x800'23dc   0x5bc  main.o [1]
  .text              ro code   0x800'2998     0x2  stm32l0xx_hal_uart_ex.o [1]
  .text              ro code   0x800'299a     0x2  startup_stm32l031xx.o [1]
  .text              ro code   0x800'299c   0x674  stm32l0xx_hal_rcc.o [1]
  .text              ro code   0x800'3010    0x9c  stm32l0xx_hal_cortex.o [1]
  .text              ro code   0x800'30ac    0x32  ABImemset.o [4]
  .text              ro code   0x800'30de     0x2  startup_stm32l031xx.o [1]
  .text              ro code   0x800'30e0   0x274  stm32l0xx_hal_gpio.o [1]
  .text              ro code   0x800'3354    0x28  stm32l0xx_hal.o [1]
  .text              ro code   0x800'337c   0x13c  stm32l0xx_hal_rtc.o [1]
  .text              ro code   0x800'34b8   0x1b0  stm32l0xx_hal_rtc_ex.o [1]
  .text              ro code   0x800'3668   0x314  stm32l0xx_hal_tim.o [1]
  .text              ro code   0x800'397c    0x42  stm32l0xx_hal_tim_ex.o [1]
  .text              ro code   0x800'39be     0x2  startup_stm32l031xx.o [1]
  .text              ro code   0x800'39c0    0x28  printf.o [2]
  .text              ro code   0x800'39e8    0x1c  stm32l0xx_hal_pwr_ex.o [1]
  .text              ro code   0x800'3a04    0x38  stm32l0xx_hal_pwr.o [1]
  .text              ro code   0x800'3a3c   0x174  stm32l0xx_hal_rcc_ex.o [1]
  .text              ro code   0x800'3bb0    0x34  stm32l0xx_hal.o [1]
  .text              ro code   0x800'3be4     0x2  stm32l0xx_hal_rtc_ex.o [1]
  .text              ro code   0x800'3be6     0x2  stm32l0xx_hal_tim.o [1]
  .text              ro code   0x800'3be8     0x2  stm32l0xx_hal_tim.o [1]
  .text              ro code   0x800'3bea     0x2  stm32l0xx_hal_tim.o [1]
  .text              ro code   0x800'3bec     0x2  stm32l0xx_hal_tim.o [1]
  .text              ro code   0x800'3bee     0x2  startup_stm32l031xx.o [1]
  .text              ro code   0x800'3bf0    0x74  system_stm32l0xx.o [1]
  .text              ro code   0x800'3c64    0x3c  stm32l0xx_it.o [1]
  .text              ro code   0x800'3ca0    0x10  stm32l0xx_hal.o [1]
  .text              ro code   0x800'3cb0    0x3c  zero_init3.o [4]
  .text              ro code   0x800'3cec    0x28  data_init.o [4]
  .iar.init_table    const     0x800'3d14    0x20  - Linker created -
  .text              ro code   0x800'3d34    0x1e  cmain.o [4]
  .text              ro code   0x800'3d52     0x4  low_level_init.o [2]
  .text              ro code   0x800'3d56     0x8  exit.o [2]
  .text              ro code   0x800'3d5e     0x2  startup_stm32l031xx.o [1]
  .text              ro code   0x800'3d60     0xa  cexit.o [4]
  .text              ro code   0x800'3d6a    0x1c  xencoding_8859_1.o [2]
  .text              ro code   0x800'3d86    0x16  xprout.o [2]
  .text              ro code   0x800'3d9c    0x10  putchar.o [2]
  .rodata            const     0x800'3dac    0x10  xprintffull.o [2]
  .text              ro code   0x800'3dbc    0x10  startup_stm32l031xx.o [1]
  .text              ro code   0x800'3dcc     0xc  cstartup_M.o [4]
  .rodata            const     0x800'3dd8     0x8  system_stm32l0xx.o [1]
  .rodata            const     0x800'3de0     0x6  xlocale_c.o [2]
  .text              ro code   0x800'3de6     0x2  startup_stm32l031xx.o [1]
  .text              ro code   0x800'3de8     0x2  startup_stm32l031xx.o [1]
  .text              ro code   0x800'3dea     0x2  startup_stm32l031xx.o [1]
  .text              ro code   0x800'3dec     0x2  startup_stm32l031xx.o [1]
  .rodata            const     0x800'3dee     0x0  zero_init3.o [4]
  .rodata            const     0x800'3dee     0x0  lz77_init_single.o [4]
  Initializer bytes  const     0x800'3dee    0x53  <for P2-1>
                             - 0x800'3e41  0x3d81

"P2", part 1 of 3:                          0x174
  P2-1                        0x2000'0000   0x174  <Init block>
    .data            inited   0x2000'0000    0x40  main.o [1]
    .data            inited   0x2000'0040    0x68  main.o [1]
    .data            inited   0x2000'00a8     0x4  system_stm32l0xx.o [1]
    .data            inited   0x2000'00ac    0x38  xlocale_c.o [2]
    .data            inited   0x2000'00e4    0x48  xlocale_c.o [2]
    .data            inited   0x2000'012c    0x48  xfiles.o [2]
                            - 0x2000'0174   0x174

"P2", part 2 of 3:                           0xd8
  .bss               zero     0x2000'0174    0x80  main.o [1]
  .bss               zero     0x2000'01f4    0x50  xfiles.o [2]
  .bss               zero     0x2000'0244     0x4  stm32l0xx_hal.o [1]
  .bss               zero     0x2000'0248     0x4  xfail_s.o [2]
                            - 0x2000'024c    0xd8

"P2", part 3 of 3:                          0x400
  CSTACK                      0x2000'0250   0x400  <Block>
    CSTACK           uninit   0x2000'0250   0x400  <Block tail>
                            - 0x2000'0650   0x400

Unused ranges:

         From           To    Size
         ----           --    ----
   0x800'3e41   0x800'7fff  0x41bf
  0x2000'024c  0x2000'024f     0x4
  0x2000'0650  0x2000'1fff  0x19b0


*******************************************************************************
*** INIT TABLE
***

          Address      Size
          -------      ----
Zero (__iar_zero_init3)
    1 destination range, total size 0xd8:
          0x2000'0174   0xd8

Copy/lz77 (__iar_lz77_init_single3)
    1 source range, total size 0x53 (22% of destination):
           0x800'3dee   0x53
    1 destination range, total size 0x174:
          0x2000'0000  0x174



*******************************************************************************
*** MODULE SUMMARY
***

    Module                   ro code  ro data  rw data
    ------                   -------  -------  -------
command line/config:
    --------------------------------------------------
    Total:

c:\Users\test\Documents\stm32\L031\RTC+uartBU\RTC+uart\rtc\EWARM\rtc\Obj: [1]
    main.o                     1 468       37      296
    startup_stm32l031xx.o        242
    stm32l0xx_hal.o              120                 4
    stm32l0xx_hal_cortex.o       156
    stm32l0xx_hal_dma.o           78
    stm32l0xx_hal_gpio.o         628
    stm32l0xx_hal_msp.o          276
    stm32l0xx_hal_pwr.o           56
    stm32l0xx_hal_pwr_ex.o        28
    stm32l0xx_hal_rcc.o        1 652
    stm32l0xx_hal_rcc_ex.o       372
    stm32l0xx_hal_rtc.o          316
    stm32l0xx_hal_rtc_ex.o       434
    stm32l0xx_hal_tim.o          796
    stm32l0xx_hal_tim_ex.o        66
    stm32l0xx_hal_uart.o       2 344
    stm32l0xx_hal_uart_ex.o        2
    stm32l0xx_it.o                60
    system_stm32l0xx.o           116        9        4
    --------------------------------------------------
    Total:                     9 210       46      304

dl6M_tlf.a: [2]
    abort.o                       10
    exit.o                         8
    low_level_init.o               4
    printf.o                      40
    putchar.o                     16
    xencoding_8859_1.o            28
    xfail_s.o                     72                 4
    xfiles.o                               17      152
    xlocale_c.o                  140       34      128
    xmbcurmax.o                   10
    xprintffull.o              4 102       16
    xprout.o                      22
    --------------------------------------------------
    Total:                     4 452       67      284

m6M_tl.a: [3]
    DblAddSub.o                  424
    DblCmpGe.o                    50
    DblCmpLe.o                    50
    DblDiv.o                     194
    DblMul.o                     388
    DblToI32.o                    82
    IxxToDbl.o                    52
    --------------------------------------------------
    Total:                     1 240

rt6M_tl.a: [4]
    ABImemcpy.o                   92
    ABImemset.o                   50
    I32DivMod.o                   54
    I32DivModFast.o              224
    I64DivMod.o                  106
    I64DivZer.o                    2
    IntDivZer.o                    2
    cexit.o                       10
    cmain.o                       30
    cstartup_M.o                  12
    data_init.o                   40
    lz77_init_single.o           126
    memchr.o                      24
    strchr.o                      22
    strlen.o                      16
    zero_init3.o                  60
    --------------------------------------------------
    Total:                       870

shb_l.a: [5]
    exit.o                        20
    --------------------------------------------------
    Total:                        20

    Linker created                         32    1 024
------------------------------------------------------
    Grand Total:              15 792      145    1 612


*******************************************************************************
*** ENTRY LIST
***

Entry                       Address   Size  Type      Object
-----                       -------   ----  ----      ------
.iar.init_table$$Base    0x800'3d14          --   Gb  - Linker created -
.iar.init_table$$Limit   0x800'3d34          --   Gb  - Linker created -
?main                    0x800'3d35         Code  Gb  cmain.o [4]
AHBPrescTable            0x800'3c48   0x10  Data  Gb  system_stm32l0xx.o [1]
APBPrescTable            0x800'3dd8    0x8  Data  Gb  system_stm32l0xx.o [1]
AT                      0x2000'0001    0x1  Data  Gb  main.o [1]
CSTACK$$Base            0x2000'0250          --   Gb  - Linker created -
CSTACK$$Limit           0x2000'0650          --   Gb  - Linker created -
CacheMore                0x800'1149   0x28  Code  Lc  xlocale_c.o [2]
HAL_DMA_Abort_IT         0x800'238d   0x4e  Code  Gb  stm32l0xx_hal_dma.o [1]
HAL_GPIO_DeInit          0x800'3249   0xe6  Code  Gb  stm32l0xx_hal_gpio.o [1]
HAL_GPIO_Init            0x800'30e1  0x168  Code  Gb  stm32l0xx_hal_gpio.o [1]
HAL_GPIO_WritePin        0x800'332f    0xc  Code  Gb  stm32l0xx_hal_gpio.o [1]
HAL_GetTick              0x800'2381    0xc  Code  Wk  stm32l0xx_hal.o [1]
HAL_IncTick              0x800'3ca1   0x10  Code  Wk  stm32l0xx_hal.o [1]
HAL_Init                 0x800'3355   0x24  Code  Gb  stm32l0xx_hal.o [1]
HAL_InitTick             0x800'3bb1   0x34  Code  Wk  stm32l0xx_hal.o [1]
HAL_MspInit              0x800'226d   0x16  Code  Gb  stm32l0xx_hal_msp.o [1]
HAL_NVIC_DisableIRQ      0x800'3061    0xe  Code  Gb  stm32l0xx_hal_cortex.o [1]
HAL_NVIC_EnableIRQ       0x800'3053    0xe  Code  Gb  stm32l0xx_hal_cortex.o [1]
HAL_NVIC_SetPriority     0x800'304b    0x8  Code  Gb  stm32l0xx_hal_cortex.o [1]
HAL_PWREx_EnableFastWakeUp
                         0x800'39e9    0xc  Code  Gb  stm32l0xx_hal_pwr_ex.o [1]
HAL_PWREx_EnableUltraLowPower
                         0x800'39f5    0xc  Code  Gb  stm32l0xx_hal_pwr_ex.o [1]
HAL_PWR_EnterSTOPMode    0x800'3a05   0x30  Code  Gb  stm32l0xx_hal_pwr.o [1]
HAL_RCCEx_PeriphCLKConfig
                         0x800'3a3d  0x14a  Code  Gb  stm32l0xx_hal_rcc_ex.o [1]
HAL_RCC_ClockConfig      0x800'2df5  0x15c  Code  Gb  stm32l0xx_hal_rcc.o [1]
HAL_RCC_GetPCLK1Freq     0x800'2fc9    0xe  Code  Gb  stm32l0xx_hal_rcc.o [1]
HAL_RCC_GetSysClockFreq
                         0x800'2f59   0x6c  Code  Gb  stm32l0xx_hal_rcc.o [1]
HAL_RCC_OscConfig        0x800'299d  0x448  Code  Gb  stm32l0xx_hal_rcc.o [1]
HAL_RTCEx_DeactivateWakeUpTimer
                         0x800'35a5   0x7c  Code  Gb  stm32l0xx_hal_rtc_ex.o [1]
HAL_RTCEx_SetWakeUpTimer_IT
                         0x800'34b9   0xbc  Code  Gb  stm32l0xx_hal_rtc_ex.o [1]
HAL_RTCEx_WakeUpTimerIRQHandler
                         0x800'3621   0x30  Code  Gb  stm32l0xx_hal_rtc_ex.o [1]
HAL_RTC_Init             0x800'337d   0xc2  Code  Gb  stm32l0xx_hal_rtc.o [1]
HAL_RTC_MspInit          0x800'2283   0x2a  Code  Gb  stm32l0xx_hal_msp.o [1]
HAL_RTC_WaitForSynchro   0x800'3445   0x30  Code  Gb  stm32l0xx_hal_rtc.o [1]
HAL_SYSTICK_Config       0x800'306f   0x28  Code  Gb  stm32l0xx_hal_cortex.o [1]
HAL_TIMEx_MasterConfigSynchronization
                         0x800'397d   0x42  Code  Gb  stm32l0xx_hal_tim_ex.o [1]
HAL_TIM_Base_Init        0x800'3669   0x2c  Code  Gb  stm32l0xx_hal_tim.o [1]
HAL_TIM_Base_MspInit     0x800'22ad   0x2a  Code  Gb  stm32l0xx_hal_msp.o [1]
HAL_TIM_Base_Start_IT    0x800'3695   0x1e  Code  Gb  stm32l0xx_hal_tim.o [1]
HAL_TIM_ConfigClockSource
                         0x800'37ef   0xb0  Code  Gb  stm32l0xx_hal_tim.o [1]
HAL_TIM_IRQHandler       0x800'36d5  0x11a  Code  Gb  stm32l0xx_hal_tim.o [1]
HAL_TIM_PeriodElapsedCallback
                         0x800'2889   0x30  Code  Gb  main.o [1]
HAL_UARTEx_WakeupCallback
                         0x800'2999    0x2  Code  Wk  stm32l0xx_hal_uart_ex.o [1]
HAL_UART_DeInit          0x800'19b1   0x3a  Code  Gb  stm32l0xx_hal_uart.o [1]
HAL_UART_ErrorCallback   0x800'23dd   0x8c  Code  Gb  main.o [1]
HAL_UART_GetError        0x800'1d41    0x4  Code  Gb  stm32l0xx_hal_uart.o [1]
HAL_UART_IRQHandler      0x800'1c01  0x13a  Code  Gb  stm32l0xx_hal_uart.o [1]
HAL_UART_Init            0x800'1945   0x56  Code  Gb  stm32l0xx_hal_uart.o [1]
HAL_UART_MspDeInit       0x800'233b   0x28  Code  Gb  stm32l0xx_hal_msp.o [1]
HAL_UART_MspInit         0x800'22d7   0x64  Code  Gb  stm32l0xx_hal_msp.o [1]
HAL_UART_Receive_IT      0x800'1b3d   0xb0  Code  Gb  stm32l0xx_hal_uart.o [1]
HAL_UART_RxCpltCallback
                         0x800'2509   0x76  Code  Gb  main.o [1]
HAL_UART_Transmit        0x800'19eb   0xe0  Code  Gb  stm32l0xx_hal_uart.o [1]
HAL_UART_Transmit_IT     0x800'1acb   0x72  Code  Gb  stm32l0xx_hal_uart.o [1]
HAL_UART_TxCpltCallback
                         0x800'2501    0x8  Code  Gb  main.o [1]
HardFault_Handler        0x800'3c67    0x2  Code  Gb  stm32l0xx_it.o [1]
JOIN_DONE               0x2000'0003    0x1  Data  Gb  main.o [1]
JOIN_YES                0x2000'0005    0x1  Data  Gb  main.o [1]
LoadInt                  0x800'02ad   0x74  Code  Lc  xprintffull.o [2]
MSG_DONE                0x2000'0004    0x1  Data  Gb  main.o [1]
NMI_Handler              0x800'3c65    0x2  Code  Gb  stm32l0xx_it.o [1]
NVIC_SetPriority         0x800'3011   0x3a  Code  Lc  stm32l0xx_hal_cortex.o [1]
PLLMulTable              0x800'3c58    0xc  Data  Gb  system_stm32l0xx.o [1]
PendSV_Handler           0x800'3c6b    0x2  Code  Gb  stm32l0xx_it.o [1]
RTC_EnterInitMode        0x800'347d   0x36  Code  Gb  stm32l0xx_hal_rtc.o [1]
RTC_IRQHandler           0x800'3c75    0xa  Code  Gb  stm32l0xx_it.o [1]
Region$$Table$$Base      0x800'3d14          --   Gb  - Linker created -
Region$$Table$$Limit     0x800'3d34          --   Gb  - Linker created -
SVC_Handler              0x800'3c69    0x2  Code  Gb  stm32l0xx_it.o [1]
StringRxBuffer          0x2000'000c   0x34  Data  Gb  main.o [1]
StringsEndsWith          0x800'28b9   0x42  Code  Gb  main.o [1]
SysTick_Handler          0x800'3c6d    0x8  Code  Gb  stm32l0xx_it.o [1]
SystemClock_Config       0x800'281d   0x6c  Code  Gb  main.o [1]
SystemCoreClock         0x2000'00a8    0x4  Data  Gb  system_stm32l0xx.o [1]
SystemInit               0x800'3bf1   0x40  Code  Gb  system_stm32l0xx.o [1]
TIM2_IRQHandler          0x800'3c7f    0xa  Code  Gb  stm32l0xx_it.o [1]
TIM_Base_SetConfig       0x800'38ad   0x4e  Code  Lc  stm32l0xx_hal_tim.o [1]
TIM_ETR_SetConfig        0x800'3951   0x14  Code  Lc  stm32l0xx_hal_tim.o [1]
TIM_ITRx_SetConfig       0x800'3941   0x10  Code  Lc  stm32l0xx_hal_tim.o [1]
TIM_TI1_ConfigInputStage
                         0x800'38fb   0x22  Code  Lc  stm32l0xx_hal_tim.o [1]
TIM_TI2_ConfigInputStage
                         0x800'391d   0x24  Code  Lc  stm32l0xx_hal_tim.o [1]
UART_AdvFeatureConfig    0x800'1f55   0xc8  Code  Gb  stm32l0xx_hal_uart.o [1]
UART_CheckIdleState      0x800'2025   0x5e  Code  Gb  stm32l0xx_hal_uart.o [1]
UART_DMAAbortOnError     0x800'2145   0x14  Code  Lc  stm32l0xx_hal_uart.o [1]
UART_EndRxTransfer       0x800'20f1   0x1e  Code  Lc  stm32l0xx_hal_uart.o [1]
UART_RxISR_16BIT         0x800'2203   0x3e  Code  Lc  stm32l0xx_hal_uart.o [1]
UART_RxISR_8BIT          0x800'21c5   0x3e  Code  Lc  stm32l0xx_hal_uart.o [1]
UART_SetConfig           0x800'1d45  0x200  Code  Gb  stm32l0xx_hal_uart.o [1]
UART_TxISR_16BIT         0x800'2183   0x2e  Code  Lc  stm32l0xx_hal_uart.o [1]
UART_TxISR_8BIT          0x800'2159   0x2a  Code  Lc  stm32l0xx_hal_uart.o [1]
UART_WaitOnFlagUntilTimeout
                         0x800'2089   0x68  Code  Gb  stm32l0xx_hal_uart.o [1]
UNJOIN                  0x2000'0002    0x1  Data  Gb  main.o [1]
USART2_IRQHandler        0x800'3c89    0xa  Code  Gb  stm32l0xx_it.o [1]
UartReady               0x2000'0000    0x1  Data  Gb  main.o [1]
_Encoding_8859_1_Mbrlen
                         0x800'3d7b    0x2  Code  Gb  xencoding_8859_1.o [2]
_Encoding_8859_1_Wctomb
                         0x800'3d6b   0x10  Code  Gb  xencoding_8859_1.o [2]
_GenldFull               0x800'0e15  0x27c  Code  Lc  xprintffull.o [2]
_LdtobFull               0x800'0995  0x46a  Code  Lc  xprintffull.o [2]
_LitobFull               0x800'0825  0x120  Code  Lc  xprintffull.o [2]
_Locale_lconv           0x2000'00ac   0x38  Data  Lc  xlocale_c.o [2]
_PrintfFull              0x800'00c1  0x1d8  Code  Gb  xprintffull.o [2]
_Prout                   0x800'3d87   0x16  Code  Gb  xprout.o [2]
_PutcharsFull            0x800'1091   0x34  Code  Lc  xprintffull.o [2]
_PutfldFull              0x800'0321  0x2cc  Code  Lc  xprintffull.o [2]
_PutstrFull              0x800'0759   0xc4  Code  Lc  xprintffull.o [2]
_PuttxtFull              0x800'0655  0x102  Code  Lc  xprintffull.o [2]
__aeabi_cdcmple          0x800'14af         Code  Gb  DblCmpLe.o [3]
__aeabi_cdrcmple         0x800'14e1         Code  Gb  DblCmpGe.o [3]
__aeabi_d2iz             0x800'1515         Code  Gb  DblToI32.o [3]
__aeabi_d2uiz            0x800'1539         Code  Gb  DblToI32.o [3]
__aeabi_ddiv             0x800'1825         Code  Gb  DblDiv.o [3]
__aeabi_dmul             0x800'132b         Code  Gb  DblMul.o [3]
__aeabi_dsub             0x800'1657         Code  Gb  DblAddSub.o [3]
__aeabi_i2d              0x800'1589         Code  Gb  IxxToDbl.o [3]
__aeabi_idiv             0x800'1771         Code  Gb  I32DivModFast.o [4]
__aeabi_idiv0            0x800'192d         Code  Gb  IntDivZer.o [4]
__aeabi_idivmod          0x800'1771         Code  Gb  I32DivModFast.o [4]
__aeabi_ldiv0            0x800'1929         Code  Gb  I64DivZer.o [4]
__aeabi_memclr4          0x800'30ad         Code  Gb  ABImemset.o [4]
__aeabi_memclr8          0x800'30ad         Code  Gb  ABImemset.o [4]
__aeabi_memcpy           0x800'1265         Code  Gb  ABImemcpy.o [4]
__aeabi_ui2d             0x800'1569         Code  Gb  IxxToDbl.o [3]
__aeabi_uidiv            0x800'1777         Code  Gb  I32DivModFast.o [4]
__aeabi_uidivmod         0x800'1777         Code  Gb  I32DivModFast.o [4]
__aeabi_uldivmod         0x800'12c1         Code  Gb  I64DivMod.o [4]
__cmain                  0x800'3d35         Code  Gb  cmain.o [4]
__exit                   0x800'1931   0x14  Code  Gb  exit.o [5]
__iar_Fail_s             0x800'11e9   0x22  Code  Gb  xfail_s.o [2]
__iar_Mbcurmax           0x800'1259    0xa  Code  Gb  xmbcurmax.o [2]
__iar_Memset4_word       0x800'30b1         Code  Gb  ABImemset.o [4]
__iar_Stdout            0x2000'012c   0x48  Data  Gb  xfiles.o [2]
__iar_d2uiz              0x800'153d         Code  Gb  DblToI32.o [3]
__iar_data_init3         0x800'3ced   0x28  Code  Gb  data_init.o [4]
__iar_globLocale        0x2000'00e4   0x48  Data  Lc  xlocale_c.o [2]
__iar_global_Locale      0x800'1145    0x4  Code  Gb  xlocale_c.o [2]
__iar_lz77_init_single3
                         0x800'10c7   0x7e  Code  Gb  lz77_init_single.o [4]
__iar_program_start      0x800'3dcd         Code  Gb  cstartup_M.o [4]
__iar_small_uidiv        0x800'18e9         Code  Gb  I32DivMod.o [4]
__iar_small_uidivmod     0x800'18e9         Code  Gb  I32DivMod.o [4]
__iar_zero_init3         0x800'3cb1   0x3c  Code  Gb  zero_init3.o [4]
__low_level_init         0x800'3d53    0x4  Code  Gb  low_level_init.o [2]
__vector_table           0x800'0000         Data  Gb  startup_stm32l031xx.o [1]
_call_main               0x800'3d41         Code  Gb  cmain.o [4]
_exit                    0x800'3d61         Code  Gb  cexit.o [4]
_gLocale_mblen           0x800'11ad    0xa  Code  Gb  xlocale_c.o [2]
_gLocale_mblenInt        0x800'1171   0x34  Code  Gb  xlocale_c.o [2]
_gLocale_wctomb          0x800'11b7    0xa  Code  Gb  xlocale_c.o [2]
_gLocale_wctombInt       0x800'11a5    0x8  Code  Gb  xlocale_c.o [2]
_main                    0x800'3d4f         Code  Gb  cmain.o [4]
aRxBuffer               0x2000'0008    0x4  Data  Gb  main.o [1]
abort                    0x800'191f    0xa  Code  Gb  abort.o [2]
at_ok                   0x2000'0041    0x1  Data  Gb  main.o [1]
data_i                  0x2000'0006    0x1  Data  Gb  main.o [1]
exit                     0x800'3d57    0x8  Code  Gb  exit.o [2]
flagAT                  0x2000'0040    0x1  Data  Gb  main.o [1]
fputc                    0x800'2909   0x12  Code  Gb  main.o [1]
hrtc                    0x2000'0044   0x24  Data  Gb  main.o [1]
htim2                   0x2000'0068   0x3c  Data  Gb  main.o [1]
huart2                  0x2000'0174   0x80  Data  Gb  main.o [1]
localeconv               0x800'11c3    0x4  Code  Gb  xlocale_c.o [2]
main                     0x800'25c5  0x24a  Code  Gb  main.o [1]
memchr                   0x800'1241   0x18  Code  Gb  memchr.o [4]
messageCounter          0x2000'00a4    0x4  Data  Gb  main.o [1]
obuf                    0x2000'01f4   0x50  Data  Lc  xfiles.o [2]
printf                   0x800'39c1   0x28  Code  Gb  printf.o [2]
putchar                  0x800'3d9d   0x10  Code  Gb  putchar.o [2]
scale                    0x800'0945   0x44  Code  Lc  xprintffull.o [2]
sec_hand                0x2000'0248    0x4  Data  Lc  xfail_s.o [2]
st_send                 0x2000'0007    0x1  Data  Gb  main.o [1]
strchr                   0x800'11d1    0x2  Code  Gb  strchr.o [4]
strlen                   0x800'1231   0x10  Code  Gb  strlen.o [4]
uwTick                  0x2000'0244    0x4  Data  Gb  stm32l0xx_hal.o [1]


[1] = c:\Users\test\Documents\stm32\L031\RTC+uartBU\RTC+uart\rtc\EWARM\rtc\Obj
[2] = dl6M_tlf.a
[3] = m6M_tl.a
[4] = rt6M_tl.a
[5] = shb_l.a

  15 792 bytes of readonly  code memory
     145 bytes of readonly  data memory
   1 612 bytes of readwrite data memory

Errors: none
Warnings: none
